:100000000C9463000C948B000C948B000C948B006C
:100010000C948B000C948B000C948B000C94EF05CB
:100020000C948B000C948B000C948B000C94C706E2
:100030000C948B000C948B000C948B000C948B0014
:100040000C94A5050C948B000C9495060C946F06EB
:100050000C948B000C948B000C948B000C948B00F4
:100060000C948B000C948B000200000000240027ED
:10007000002A0000000000250028002B00000000DE
:1000800000230026002900040404040404040402DC
:100090000202020202030303030303010204081025
:1000A00020408001020408102001020408102000F2
:1000B0000000080002010000030407000000000027
:1000C00000000000880711241FBECFEFD8E0DEBF7C
:1000D000CDBF11E0A0E0B1E0E2E6F6E102C005909C
:1000E0000D92A236B107D9F722E0A2E6B1E001C035
:1000F0001D92A93FB207E1F710E0C3E6D0E004C0CB
:100100002197FE010E94240BC236D107C9F70E9435
:1001100074080C942F0B0C940000BC019091F60213
:100120009C3098F58091F70228E830E0281B3109CF
:1001300087FD3395220F331F220F331F621773077A
:100140008CF08091F80248E552E0481B510987FD88
:100150005395440F551F440F551F9B0146175707D2
:100160000CF49A0122503109220F331F4FB7F89433
:10017000892F90E0FC01EE0FFF1F8E0F9F1FFC01E7
:10018000E35EFD4F328321834FBF0895833081F0BA
:1001900028F4813099F08230A1F008958730A9F0D9
:1001A0008830B9F08430D1F4809180008F7D03C015
:1001B000809180008F7780938000089584B58F7739
:1001C00002C084B58F7D84BD08958091B0008F7783
:1001D00003C08091B0008F7D8093B0000895CF93CD
:1001E000DF93282F30E0F901E155FF4F8491F901A9
:1001F000E556FF4FD491F901E957FF4FC491CC2345
:1002000091F081110E94C600EC2FF0E0EE0FFF1F6D
:10021000E358FF4FA591B491EC91ED2381E090E07C
:1002200021F480E002C080E090E0DF91CF9108955A
:100230001F93CF93DF93282F30E0F901E155FF4F53
:100240008491F901E556FF4FD491F901E957FF4F29
:10025000C491CC23C1F0162F81110E94C600EC2F4F
:10026000F0E0EE0FFF1FED58FF4FA591B4919FB73F
:10027000F894111104C08C91D095D82302C0EC9150
:10028000DE2BDC939FBFDF91CF911F910895CF9319
:10029000DF9390E0FC01E556FF4F2491FC01E95704
:1002A000FF4F8491882361F190E0880F991FFC0132
:1002B000E759FF4FC591D491FC01ED58FF4FA5912F
:1002C000B491611109C09FB7F89488812095822369
:1002D0008883EC912E230BC0623061F49FB7F894B1
:1002E0008881322F309583238883EC912E2B2C9399
:1002F0009FBF06C08FB7F894E8812E2B28838FBF4D
:10030000DF91CF9108958E3008F08E508770806411
:1003100080937C0080917A00806480937A00809141
:100320007A0086FDFCCF809178002091790090E0E2
:10033000922B0895CF93DF93892B49F18091D802B6
:100340000E94830197FD03969C013595279535956D
:10035000279544E6429FC001439F900D11246FEF03
:1003600070E00E94FC0AD62FC72F8091DA020E940B
:10037000830197FD03969C01359527953595279523
:1003800044E6429FC001439F900D112432C08091EA
:10039000D8020E94830197FD0396959587959595C0
:1003A000879591958195910981509F4F44E6489F8B
:1003B0009001499F300D1124C9016FEF70E00E9438
:1003C000FC0AD62FC72F8091DA020E94830197FD85
:1003D0000396959587959595879591958195910922
:1003E00081509F4F44E6489F9001499F300D112452
:1003F000C9016FEF70E00E94FC0A8D2F9C2F85369B
:10040000910514F084E690E09C0197FF02C020E083
:1004100030E0CB016536710514F084E690E097FF7B
:1004200002C080E090E04091D1025091D2022417A6
:10043000350739F44091D3025091D40284179507BF
:1004400019F041E04093D5023093D2022093D102BB
:100450009093D4028093D302DF91CF9108953FB758
:10046000F89480917C0190917D01A0917E01B091E2
:100470007F0126B5A89B05C02F3F19F00196A11D4D
:10048000B11D3FBFBA2FA92F982F8827820F911D2A
:10049000A11DB11DBC01CD0142E0660F771F881F71
:1004A000991F4A95D1F708958F929F92AF92BF926C
:1004B000CF92DF92EF92FF926B017C010E942F029C
:1004C0004B015C01C114D104E104F104F1F00E947C
:1004D0002F02DC01CB0188199909AA09BB09883EC2
:1004E0009340A105B10570F321E0C21AD108E108DB
:1004F000F10888EE880E83E0981EA11CB11CC1147F
:10050000D104E104F10419F7DDCFFF90EF90DF9003
:10051000CF90BF90AF909F908F900895CF92DF9231
:10052000EF92FF920F931F93CF93DF936C017A01A9
:100530008B01C0E0D0E0CE15DF0581F0D8016D91D0
:100540008D01D601ED91FC910190F081E02DC60165
:100550000995892B11F02196EECF7E01C701DF911D
:10056000CF911F910F91FF90EF90DF90CF90089562
:10057000FC01538D448D252F30E0842F90E0821BA9
:10058000930B541710F0CF96089501970895FC012E
:10059000918D828D981761F0828DDF01A80FB11DBA
:1005A0005D968C91928D9F5F9F73928F90E00895DE
:1005B0008FEF9FEF0895FC01918D828D981731F098
:1005C000828DE80FF11D858D90E008958FEF9FEFEC
:1005D0000895FC01918D228D892F90E0805C9F4FC2
:1005E000821B91098F739927089580E891E00E94FA
:1005F000E90221E0892B09F420E0822F0895FC0113
:10060000848DDF01A80FB11DA35ABF4F2C91848D9B
:1006100090E001968F739927848FA689B7892C93D0
:10062000A089B1898C91837080648C93938D848D23
:10063000981306C00288F389E02D80818F7D808326
:100640000895EF92FF920F931F93CF93DF93EC01E6
:1006500081E0888F9B8D8C8D981305C0E889F9897E
:10066000808185FD26C0F62E0B8D10E00F5F1F4F99
:100670000F731127E02E8C8DE8120CC00FB607FC0B
:10068000FACFE889F989808185FFF5CFCE010E94F4
:10069000FF02F1CF8B8DFE01E80FF11DE35AFF4FF2
:1006A000F0829FB7F8940B8FEA89FB898081806282
:1006B0000AC09FB7F894EE89FF896083E889F989B9
:1006C00080818370806480839FBF81E090E0DF91B0
:1006D000CF911F910F91FF90EF900895CF93DF93EB
:1006E000EC01888D8823C9F0EA89FB89808185FD2A
:1006F00005C0A889B9898C9186FD0FC00FB607FC8B
:10070000F5CF808185FFF2CFA889B9898C9185FFCB
:10071000EDCFCE010E94FF02E7CFDF91CF91089588
:1007200080E090E0892B29F00E94F50281110C9461
:1007300000000895CF93DF93EC0160E08E810E946A
:10074000180161E08E810E94180160E08E810E9494
:1007500018018BE891E00197F1F7DF91CF910895AF
:10076000CF92DF92EF92FF920F931F93CF93DF937D
:100770006C017C0187E0E80EF11CC0E0D0E0062FA0
:1007800010E0B8010C2E02C0759567950A94E2F747
:100790006170F70181917F010E9418012196C43098
:1007A000D10579F7C601DF91CF911F910F91FF908D
:1007B000EF90DF90CF900C949A03CF92DF92EF925C
:1007C000FF920F931F93CF93DF93EC01F62E642FCC
:1007D0008C810E9418018D818F3F19F060E00E948A
:1007E00018018F850F2D10E084FF25C06E0187E072
:1007F000C80ED11CE12CF12CB8010E2C02C075954D
:1008000067950A94E2F76170F60181916F010E9489
:100810001801FFEFEF1AFF0A88E0E816F10461F70C
:10082000CE01DF91CF911F910F91FF90EF90DF905C
:10083000CF900C949A03B80184E0759567958A95DA
:10084000E1F7CE010E94B0036F2DCE01DF91CF9171
:100850001F910F91FF90EF90DF90CF900C94B00319
:1008600040E0682F8EED92E00C94DD03CF93DF9390
:10087000823028F09091ED0298609093ED02809381
:10088000F1021092F20280E48093F30280E18093FF
:10089000F40280E58093F50261E08091E2020E941B
:1008A00047018091E3028F3F19F061E00E94470108
:1008B00061E08091E4020E944701CEEDD2E09E010A
:1008C0002E5D32408091ED0284FD03C084E090E013
:1008D00002C088E090E02196281739072CF461E0E7
:1008E0008E810E944701EBCF8BE39DE00197F1F7EA
:1008F00060E08091E2020E94180160E08091E402D1
:100900000E9418018091E3028F3F19F060E00E947D
:1009100018018091ED0284FD20C063E08EED92E02D
:100920000E94B003CBE4D6E4CE010197F1F763E077
:100930008EED92E00E94B0032197F1F763E08EED17
:1009400092E00E94B00383E592E00197F1F762E044
:100950008EED92E00E94B00315C080620E943004C8
:100960008BE496E40197F1F78091ED0280620E949A
:10097000300483E592E00197F1F78091ED02806207
:100980000E9430048091ED0280620E94300484E075
:100990008093EE028CE00E94300481E00E943004DB
:1009A0008BE39FE10197F1F782E08093EF0286E00D
:1009B000DF91CF910C94300441E00E94DD0381E08F
:1009C00090E00895089580E090E008950E942A0B39
:1009D0006115710579F0FB0101900020E9F731976D
:1009E000AF01461B570BDC01ED91FC910280F381B6
:1009F000E02D099480E090E008958F929F92AF924D
:100A0000BF92EF92FF920F931F93CF93DF93CDB7D7
:100A1000DEB7A1970FB6F894DEBF0FBECDBF7C0145
:100A2000FA01CB0119A2223008F42AE08E010F5DF1
:100A30001F4F822E912CA12CB12CBF01A501940136
:100A40000E94CE0AF901CA01015011096A3014F45A
:100A5000605D01C0695CD8016C93232B242B252B8E
:100A600061F7B801C7010E94E804A1960FB6F89497
:100A7000DEBF0FBECDBFDF91CF911F910F91FF90D1
:100A8000EF90BF90AF909F908F900895CF92DF929C
:100A9000EF92FF920F931F93CF93DF936B01770F2A
:100AA000EE08FF08F7FE1FC0EC01E881F981019014
:100AB000F081E02D6DE209958C0144275527BA019C
:100AC0004C195D096E097F092AE0CE010E94FD04E0
:100AD000800F911FDF91CF911F910F91FF90EF90A9
:100AE000DF90CF9008952AE0B701A601DF91CF9162
:100AF0001F910F91FF90EF90DF90CF900C94FD0429
:100B00000C94E804CF93DF93EC0109968D369105A0
:100B100078F460E271E08EED92E00E948005CA30C8
:100B2000D10530F460E271E08EED92E00E94800524
:100B3000BE018EED92E00E9446056FE171E08EED00
:100B400092E0DF91CF910C9480051F920F920FB627
:100B50000F9211242F933F938F939F93AF93BF9343
:100B60008091780190917901A0917A01B0917B01F7
:100B70003091770123E0230F2D3720F40196A11D3A
:100B8000B11D05C026E8230F0296A11DB11D2093BB
:100B900077018093780190937901A0937A01B093C3
:100BA0007B0180917C0190917D01A0917E01B091AB
:100BB0007F010196A11DB11D80937C0190937D0161
:100BC000A0937E01B0937F01BF91AF919F918F91D0
:100BD0003F912F910F900FBE0F901F9018951F926D
:100BE0000F920FB60F9211242F933F934F935F9361
:100BF0006F937F938F939F93AF93BF93EF93FF93E5
:100C00008091730190917401A0917501B09176016A
:100C1000892B8A2B8B2B49F19091720180910000D6
:100C20008927809300008091730190917401A091B5
:100C30007501B0917601181619061A061B060CF0FC
:100C40003DC08091730190917401A0917501B091A4
:100C500076010197A109B109809373019093740102
:100C6000A0937501B093760129C080910001E8E658
:100C7000F0E0E4919FEF90930001E130B9F098F03B
:100C8000E230C9F4909170009D7F9093700091E0E4
:100C90009093B0009091B100987F94609093B100D0
:100CA0001092B30008C010926E0005C090916F00C2
:100CB0009D7F90936F0060E00E941801FF91EF917B
:100CC000BF91AF919F918F917F916F915F914F9164
:100CD0003F912F910F900FBE0F901F9018951F926C
:100CE0000F920FB60F9211242F933F934F935F9360
:100CF0006F937F938F939F93AF93BF93EF93FF93E4
:100D000080E891E00E94FF02FF91EF91BF91AF91C7
:100D10009F918F917F916F915F914F913F912F9113
:100D20000F900FBE0F901F9018951F920F920FB645
:100D30000F9211242F938F939F93EF93FF93E09142
:100D40009001F09191018081E0919601F0919701DD
:100D500082FD12C09081809199018F5F8F732091E5
:100D60009A01821751F0E0919901F0E0E058FE4FAE
:100D7000958F8093990101C08081FF91EF919F91A0
:100D80008F912F910F900FBE0F901F9018951F926B
:100D90000F920FB60F9211242F933F934F935F93AF
:100DA0006F937F938F939F93AF93BF93EF93FF9333
:100DB00080916C0187FF05C010928500109284001D
:100DC0001BC020916C01022E000C330B809141025C
:100DD00090E02817390784F480916C01082E000CEC
:100DE000990BFC01EE0FFF1F8E0F9F1FFC01E35EAE
:100DF000FD4F808186FD15C080916C018F5F8093CF
:100E00006C0120916C01022E000C330B8091410289
:100E100090E028173907C4F480916C018C3064F19C
:100E200013C080916C01082E000C990BFC01EE0F91
:100E3000FF1F8E0F9F1FFC01E35EFD4F808160E06E
:100E40008F730E941801D8CF809184009091850003
:100E5000049680349C4918F480E49CE905C0809194
:100E60008400909185000496909389008093880077
:100E70008FEF80936C013BC02091840030918500FE
:100E800080916C01082E000C990BFC01EE0FFF1FE6
:100E90008E0F9F1FFC01E35EFD4F81819281820FC7
:100EA000931F909389008093880080916C01082E95
:100EB000000C990BFC01EE0FFF1F8E0F9F1FFC0112
:100EC000E35EFD4F808186FF12C080916C01082E89
:100ED000000C990BFC01EE0FFF1F8E0F9F1FFC01F2
:100EE000E35EFD4F808161E08F730E941801FF91E6
:100EF000EF91BF91AF919F918F917F916F915F9192
:100F00004F913F912F910F900FBE0F901F9018950A
:100F1000109283011092820188EE93E0A0E0B0E08D
:100F20008093840190938501A0938601B0938701FB
:100F300085E091E0909381018093800185EC90E0C1
:100F400090938D0180938C0184EC90E090938F01BD
:100F500080938E0180EC90E09093910180939001BA
:100F600081EC90E0909393018093920182EC90E069
:100F7000909395018093940186EC90E09093970173
:100F8000809396011092990110929A0110929B0100
:100F900010929C01809141028C30A0F491E0980F56
:100FA000909341028093F60290E0FC01EE0FFF1F48
:100FB0008E0F9F1FFC01E35EFD4F88EB9BE0928349
:100FC000818303C08FEF8093F6021092E1021092AA
:100FD000E00287E191E09093DF028093DE028CE0F3
:100FE0008093E2028FEF8093E3028BE08093E40230
:100FF00085E08093E50284E08093E60283E08093BD
:10100000E70282E08093E8021092E9021092EA027D
:101010001092EB021092EC021092ED0281E00E941D
:10102000360461E086E00E94470186E090E09093FC
:10103000DD028093DC0260E087E00E94470187E0E8
:1010400090E09093D7028093D6021092D90210922A
:10105000D80281E090E09093DB028093DA02109254
:10106000D0021092CF021092D2021092D1021092AE
:10107000D4021092D3028093D5021092CD028093B5
:10108000CE021092CC021092CB021092CA0222E041
:1010900030E030934D0220934C0223E030E0309357
:1010A0004F0220934E021092B7021092B602109295
:1010B000B9021092B8022FEF33E03093BB022093B5
:1010C000BA023093BD022093BC0210924B021092E0
:1010D0004A0229E130E0309351022093500280937C
:1010E000C0028093C1020895789484B5826084BD63
:1010F00084B5816084BD85B5826085BD85B581601C
:1011000085BD80916E00816080936E001092810099
:101110008091810082608093810080918100816054
:101120008093810080918000816080938000809115
:10113000B10084608093B1008091B00081608093A1
:10114000B00080917A00846080937A0080917A0068
:10115000826080937A0080917A00816080937A0027
:1011600080917A00806880937A001092C10080910B
:10117000F6028C3008F051C061E089E00E9447011E
:101180008091F602E82FF0E09F01220F331FE20F5B
:10119000F31FE35EFD4F9081907C996090831092E5
:1011A000F7021092F8026CE00E94F00A2CE0829F95
:1011B000B001112440E050E09B01240F351FF901DC
:1011C000EE0FFF1F2E0F3F1FF901E35EFD4F9081D1
:1011D00096FD16C04F5F5F4F4C30510569F7811186
:1011E0000FC01092800082E08093810010928500F1
:1011F00010928400B19A80916F00826080936F009A
:10120000E091F602F0E0CF01880F991FE80FF91F77
:10121000E35EFD4F80818064808382E00E9436041B
:10122000E0919001F091910182E08083E0918C0146
:10123000F0918D011082E0918E01F0918F018FEC81
:10124000808310929801E0919401F091950186E0DD
:101250008083E0919201F09193018081806180838D
:10126000E0919201F0919301808188608083E09108
:101270009201F0919301808180688083E0919201D6
:10128000F091930180818F7D808362E271E08EED29
:1012900092E00E948005E091F102E23010F4E1500A
:1012A00001C0E1E0F0E0E252FD4F848980680E94D5
:1012B000300464E371E08EED92E00E94800563E00B
:1012C00070E08EED92E00E94460562E471E08EEDE2
:1012D00092E00E94800561E070E08EED92E00E9455
:1012E000460568EB7BE080E090E00E94540210929B
:1012F0007101CFE0D0E0DD24D3940BE31FE18091B6
:101300007101F090CD0281110FC08091D6020E9430
:10131000EF009093D0028093CF02F11017C081E0CC
:1013200090E00E949A0112C08091D6020E94EF00C4
:101330009093D0028093CF02F11004C081E090E03E
:101340000E949A01D093D402C093D3028091D1021B
:101350009091D202181619061CF4D092CE0202C047
:101360001092CE028091CD02811103C08CED95E0E8
:1013700009C08091CE02882319F088EE93E002C064
:1013800080ED97E00E948D002091D1023091D20231
:101390008091D3029091D402820F931F892B11F474
:1013A0001092CD028091CD02882309F459C02FB745
:1013B000F8948091780190917901A0917A01B0918F
:1013C0007B012FBF2091CE0240916D0150916E01A3
:1013D00060916F01709170014C015D01841A950A52
:1013E000A60AB70A2223C9F026EB821623E092064A
:1013F000A104B10498F180936D0190936E01A093C4
:101400006F01B09370018091D1029091D202019747
:101410009093D2028093D10218C026EB821623E06B
:101420009206A104B104D0F080936D0190936E01F7
:10143000A0936F01B09370018091D3029091D40278
:1014400001979093D4028093D3028091CA02909125
:10145000CB0201969093CB028093CA02D092CC0229
:101460008091D502811104C08091CC028823B1F112
:1014700081E00E943004C8010197F1F764E471E053
:101480008EED92E00E948005E091F102E23010F4CE
:10149000E15001C0E1E0F0E0E252FD4F8489806854
:1014A0000E9430048091D1029091D2020E94820564
:1014B0008091D3029091D4020E9482056FE171E085
:1014C0008EED92E00E9480058091CA029091CB023D
:1014D0000E9482051092D5021092CC028091CF0218
:1014E0009091D002892BF1F48091CD028D258093CB
:1014F000CD026AEF70E080E090E00E9454022FB7C6
:10150000F8948091780190917901A0917A01B0913D
:101510007B012FBF80936D0190936E01A0936F01AB
:10152000B093700182E4A82E82E0B82EE12CF12C59
:1015300064E571E080E891E00E948005B70180E8F1
:1015400091E00E94460560E271E080E891E00E942F
:101550008005F501619171915F0180E891E00E9441
:10156000460560E271E080E891E00E948005F501A7
:101570006281738180E891E00E9446056FE571E029
:1015800080E891E00E94E804FFEFEF1AFF0A22E0F2
:10159000E216F10469F60E949003B1CEA1E21A2E80
:1015A000AA1BBB1BFD010DC0AA1FBB1FEE1FFF1F07
:1015B000A217B307E407F50720F0A21BB30BE40B57
:1015C000F50B661F771F881F991F1A9469F760959E
:1015D0007095809590959B01AC01BD01CF01089558
:1015E000991B79E004C0991F961708F0961B881F75
:1015F0007A95C9F78095089597FB072E16F4009405
:1016000007D077FD09D00E94100B07FC05D03EF4EF
:10161000909581959F4F0895709561957F4F08959E
:10162000AA1BBB1B51E107C0AA1FBB1FA617B70708
:1016300010F0A61BB70B881F991F5A95A9F7809524
:101640009095BC01CD010895EE0FFF1F0590F49118
:10165000E02D099481E090E0F8940C942F0BF8941D
:02166000FFCFBA
:10166200FF0000000021038E02B8026E03E902C7E8
:1016720002DB0200000000DC048E02E304E204202C
:10168200200020546574726F646520547769737406
:1016920065722000666F722041726475696E6F20F8
:1016A20076002E0046574420205245562020434FB4
:1016B200554E540050686F746F63656C6C20000D5A
:0216C2000A001C
:00000001FF
